:03000000025F9408
:0C5F9400787FE4F6D8FD758121025FDB08
:1010000002080425051301A3F2A5A5012102110F71
:10755E00901003E49390E080F0901004E49390E098
:10756E0081F0901005E49390E082F0901006E49381
:05757E0090E083F02203
:10710A00127B0A126758127A3C127ABA12769A12CB
:10711A00755E1277321277A312000A127C9B127CD8
:10712A00B3127BD7127C95124927127CE312725054
:08713A00127CE4127B5380E992
:10508F0052474220366269740052474220386269A3
:10509F0074005247422031306269740052474220F7
:1050AF00313262697400595556343434203862698C
:1050BF0074005955563434342031306269740059B4
:1050CF005556343434203132626974005955563490
:1050DF0032322038626974005955563432322031D9
:1050EF003062697400595556343232203132626958
:1050FF00740059555634323020386269740059554E
:10510F00563432302031306269740059555634327A
:10511F003020313262697400756E737570706F7202
:10512F0074656420666F726D61742C756350697855
:10513F00656C456E636F64696E673A3078253032FF
:10514F0062782C756344657074683A307825303214
:10515F00627800FF508FFF5098FF50A1FF50ABFFB8
:10516F0050B5FF50C1FF50CEFF50DBFF50E7FF504F
:0A517F00F4FF5101FF510DFF511A1A
:0A5AB30090040DEDF090040CEFF0EC
:105ABD007EFF14602714604114605B2403707090A6
:105ACD00040DE024FB600B14600C240670617E0154
:105ADD00805D7E0280597E038055805390040DE0D9
:105AED0024FB600B14600C240670447E0780407EFE
:105AFD0008803C7E098038803690040DE024FB60E0
:105B0D000B14600C240670277E0480237E05801FF5
:105B1D007E06801B801990040DE024FB600B146041
:105B2D000C2406700A7E0A80067E0B80027E0CEE27
:105B3D00B4FF1D7BFF7A51792790040CE09004157A
:105B4D00F090040DE0900416F07F03125F077E01C4
:025B5D00AF0691
:015B5F002223
:10642F007F007E007D007C00E4FB90E584E0FFE4CC
:10643F007808121927C004C005C006C00790E5836D
:10644F00E0FFE4FCFDFE7810121927A804A905AAA5
:10645F0006AB07D007D006D005D0041217A7A804A3
:10646F00A905AA06AB0790E585E0FFE4FCFDFE1247
:10647F0017A7E41211A8A804A905AA06AB077F80E5
:10648F007E967D187C4C12110BE4FBFAF9783F12C3
:07649F0010171211E6AB0714
:0164A60022D3
:023BF800AB0719
:103BFA009004101219EC00000000EB121A5E3C301F
:103C0A00003C53013C76023C99033CBC043CDF0572
:103C1A003CFB063D16073D31083D4C093D670A3D10
:103C2A007E0B00003D9490E592E0FE90E593E07CE7
:103C3A00002400FFEC3EFEEF25E0FFEE33FEE4FD3C
:103C4A009004101219E0023D9490E596E0FE90E58A
:103C5A0097E07C002400FFEC3EFEEF25E0FFEE3308
:103C6A00FEE4FD9004101219E0023D9490E58CE008
:103C7A00FE90E58DE07C002400FFEC3EFEEF25E09F
:103C8A00FFEE33FEE4FD9004101219E0023D949019
:103C9A00E586E0FE90E587E07C002400FFEC3EFE2E
:103CAA00EF25E0FFEE33FEE4FD9004101219E00266
:103CBA003D9490E58AE0FE90E58BE07C002400FFCD
:103CCA00EC3EFEEF25E0FFEE33FEE4FD9004101219
:103CDA0019E0023D9490E594E0FE90E595E07C00C1
:103CEA002400FFEC3EFEE4FD9004101219E0023DB0
:103CFA009490E598E0FE90E599E07C002400FFECC2
:103D0A003EFEE4FD9004101219E0807E90E590E0FA
:103D1A00FE90E591E07C002400FFEC3EFEE4FD907D
:103D2A0004101219E0806390E588E0FE90E589E0CE
:103D3A007C002400FFEC3EFEE4FD9004101219E022
:103D4A00804890E58EE0FE90E58FE07C002400FF3D
:103D5A00EC3EFEE4FD9004101219E0802D90E580FF
:103D6A00E05410FFC4540FFFE4FCFDFE900410124F
:103D7A0019E0801690E580E05420FFC4135407FF31
:103D8A00E4FCFDFE9004101219E09004101219C808
:013D9A002206
:104D9200900403121A49E4FF123BF8900403121A1A
:104DA20029900004EE8FF012177A7F01123BF890DF
:104DB2000403121A29900006EE8FF012177A7F026E
:104DC200123BF8900403121A29900008EE8FF01299
:104DD200177A7F03123BF8900403121A2990000AF3
:104DE200EE8FF012177A7F04123BF8900403121A26
:104DF2002990000CEE8FF012177A7F05123BF89083
:104E02000403121A2990000EEE8FF012177A7F0611
:104E1200123BF8900403121A29900010EE8FF01240
:104E2200177A7F07123BF8900403121A2990001296
:104E3200EE8FF012177A7F08123BF8900403121AD1
:104E420029900014EE8FF012177A7F09123BF89026
:104E52000403121A29900016EE8FF012177A7F0AB5
:104E6200123BF8900403121A29900018EF12166DE3
:104E72007F0B123BF8900403121A29900019EF12CB
:104E8200166D12642F900403121A2990001AEF1261
:034E9200166D2278
:10734C0090058EE0FEA3E0FF7003EE64106008E48D
:10735C00B5071AEEB40816900598E0B4080FA3E030
:10736C00B4700A9005A2E0B43C037F01227F002296
:1076D80090058EE0B40A14A3E0B4000F900598E07A
:0E76E800B40508A3E0B4A0037F01227F0022B6
:067C8F00900583E0FF22D6
:0D7AD60090E80AEFF07F057E001277142281
:105B6000E4FEEF24FD60732482602014603924FE7B
:105B70007003025BF2240D6003025C0990E875E09B
:105B800064776003025C097E01807E90E875E064C2
:105B900081707690E876E06401706E90E877E0645A
:105BA0001B70667E01806290E875E0FFB4821890F9
:105BB000E876E0FD64026004EDB4030B90E877E062
:105BC000B40D047E018042EF703F90E876E07039BA
:105BD00090E877E070337E01802F90E875E06403F1
:105BE000702790E876E0702190E877E0701B7E01E6
:105BF000801790E875E0B4841090E876E0B401096D
:0B5C000090E877E0B40A027E01AF06D6
:015C0B002276
:1067580090E201E0547FF090E5FE7402F0E490E7E7
:1067680025F090E726749CF090E7277440F090E7B6
:106778002274C7F0E490E725F090E726749CF09027
:10678800E7277440F090E72274C7F0E490E545F0FD
:1067980090E546749CF090E5477440F090E54274AB
:1067A800C7F0E490E555F090E556749CF090E557F5
:0D67B8007440F090E55274C7F0126F9B2200
:10776C00EFB4010A90E540E05480F04DF022EFB404
:0C777C00020990E550E05480F04DF0222E
:06560F0090040DEFF0FB1A
:10561500A31219EC00000000EB6401705B90E540FB
:10562500E04480F090E548E0540FFFE4FCFDFE788F
:1056350010121927C004C005C006C00790E549E04F
:10564500FFE4FCFDFE7808121927D003D002D00133
:10565500D0001217A7A804A905AA06AB0790E54A2A
:10566500E0FFE4FCFDFE1217A790040E1219E0906E
:10567500E540E0547FF0806190040DE064027059CC
:1056850090E540E04480F090E558E0540FFFE4FCDD
:10569500FDFE7810121927C004C005C006C007908A
:1056A500E559E0FFE4FCFDFE7808121927D003D088
:1056B50002D001D0001217A7A804A905AA06AB07B6
:1056C50090E55AE0FFE4FCFDFE1217A790040E12C8
:0F56D50019E090E540E0547FF090040E1219C8E0
:0156E40022A3
:10769A0090E0117402F090E01274FFF090E013F0A1
:0F76AA0090E014F090E010E04401F04404F0226E
:0B7B530090E010E04402F054FDF0222E
:106E58003639313144204944004F6E6C792048441A
:106E680043503134204B657900484443505F4C6FA0
:106E780061644B657920646F6E6500484443505FD8
:106E88004C6F61644B6579206661696C65640000CC
:016E980000F9
:041B1D004105C700B7
:106B6A00E4900403F078047C047D017BFF7A6E795B
:106B7A0097FE7F021215EFE4FB7D807F0612587D97
:106B8A00900404EFF07B017D807F0612587D90040B
:106B9A0005EFF0900404E0B44513A3E0B4580E7B6B
:0F6BAA00FF7A6E79587F01125F077F01227F000B
:016BB90022B9
:10695900E4900403F0A3F090E931E054FDF090E9EC
:1069690080E030E1089004037401F08005E49004AC
:1069790003F07F017E0012771490E931E04402F0C0
:1069890090E980E030E1089004047401F08005E4A6
:10699900900404F0900403E07013A3E0B4010E7BAB
:0F69A900FF7A6E79617F01125F077F01227F0005
:0169B80022BC
:10602000E4900403F090E92D7485F090E92BE044AE
:1060300040F054BFF090E0687405F0E490E069F03F
:1060400090E06AF090E065F090E0667408F0E4900B
:10605000E067F090E060E04402F07F0A7E00127793
:106060001490E060E054FDF0E4900403F090040329
:10607000E004F07F017E00127714900403E0C394E3
:106080001440EA90E980E0FF30E0E230E00E7BFF70
:106090007A6E79717F01125F077F01227BFF7A6E32
:0960A00079837F03125F077F0082
:0160A90022D4
:106F9B00E4900402F0FF126B6A900402EFF01260AF
:106FAB0020126959900402E064016004EFB40118E7
:106FBB0090E81BE0547FF04440F090E115E054F072
:0D6FCB00F09005C77401F022E49005C7F0B6
:016FD8002296
:101B210044056B0000000041056F00420570000094
:0B1B3100440572000000004105760032
:1070170090E10AE0547FF0900402E0FF227B017FB9
:107027001E7E007D007C00222400FFEC3EF0A3EFD3
:1070370022940474809480227B017A0579722290CD
:0E7047000402EFF064012290057DE064012256
:107732007E007F0D7D007B017A05797B121AB19064
:0D77420005867401F0E4FF12767A020FF65E
:105DE800E4900404F012721B900403EFF064017055
:105DF8005F7F05FE1277147F01123BF8900405EED1
:105E0800F0A3EFF07F06123BF8900405E0FCA3E056
:105E1800FDD39450EC94004009D3EF9450EE9400D5
:105E28005007E4900404F080069004047401F0C361
:105E3800ED9464EC94145009C3EF9464EE94144008
:105E480007E4900404F080239004047401F0801B9C
:105E5800900403E0700F1241D2EF6401700D9004BA
:105E68000404F080069004047402F0900404E0FF37
:015E78002207
:106F1B00900586E0FE6F6037900409EEF0900586D1
:106F2B00EFF090057D7401F0900586E06409700A1E
:106F3B007F03127B237F0312737C900409E06409A7
:0F6F4B00700D7F04127B237F0412737C127A185F
:016F5A002214
:037CDD007F012202
:10765A0090057CE06401700A127CDDEF70117F02F4
:10766A00800A127CDDEF640170057F01127B232200
:1079F400900577E054FEF054FDF0E4A3F0A3F0A367
:027A0400F0226E
:105189001260AA900570EEF0A3EFF0F44E60309033
:105199000578E0FF900570E0FCA3E0FD6F7001EC7D
:1051A900601AED4C700BFF125264E490057AF0809E
:1051B9000B7F0112526490057A7401F0126BBA9058
:1051C900057AE024FE601814607324026003025219
:1051D90063E490056F12527190057A7402F0227A95
:1051E90005796B127024126605EF64017008900549
:1051F9006FE00412527190056FE06414700C900511
:1052090078E0600690056FE004F090056FE0641E99
:105219007011127825EF600B7F05127B2390057AB8
:105229007403F090056FE06432702F127825EF60F7
:10523900057F05127B2390057A7403F02290057887
:10524900E06017127825EF70117F06127B23900515
:0A5259007A7402F090056F741EF0E5
:1052630022126EDA900570A3E0900578F022F07BAD
:09527300017A05796B126AC5226B
:0C7B17009005C7E064017F101263B322E8
:104A4D0090040274FFF090057CE07003024B6F90B0
:104A5D000586E0D3127038401790057EE070111274
:104A6D007017127038500280027F04900402EFF02C
:104A7D00900581E06401701212701DC312703850E0
:104A8D000280027F04900402EFF0900586E0D3943B
:104A9D000574809480401B127C32EF6015127017E4
:104AAD00C3940574809480500280027F05900402A7
:104ABD00EFF0900586E0D394067480948040657F76
:104ACD0082125B60EF6401705B1278DBEF64016052
:104ADD000812791BEF6401704B90E8D8E0FE90E866
:104AED00D9E07C0090040312702FF090E8DAE0FE1C
:104AFD0090E8DBE090040512702FF090E8DCE0FE0A
:104B0D0090E8DDE02400FFEC3E900407F0A3EF12E7
:104B1D00701DC3940674809480500280027F0690AD
:104B2D000402EFF0900586E0D394077480948040E2
:104B3D001B90057FE07015A3E070111270171270B5
:104B4D0038500280027F04900402EFF0900402E0DE
:104B5D00FFF46003126F1B900586E0640970031269
:024B6D00536A89
:014B6F002223
:106FD90090E89CE0540164017020900587E0702DD1
:106FE900900556E0FF1275A8EF602290058774019D
:106FF900F07F04127B237F048010900587E06401F1
:0D700900700BF07F03127B237F0312737C5A
:017016002257
:103A0C00900586E0121A5E3A32013A4E023A7C0375
:103A1C003A86043ACA053AF4063B42073BBC083BDB
:103A2C00C60900003BC9120FF6E4FF12767A126B3E
:103A3C00181276B9127B171275CD123BDF7F02027A
:103A4C003BC312703F7F2C7E017D007C001266050B
:103A5C00EF64016003023BC9123BDF90057CE0641C
:103A6C00016003023BC97F011279067F03023BC34D
:103A7C007F0112767A7F04023BC312704E700612DD
:103A8C003BE9127284123BCA6003023BC91271E615
:103A9C001270467026127AF090057BEFF09005C7F5
:103AAC00E06401701190057BE06401700912703FB5
:103ABC00126AC5023BB67F05126F1B023BB690051E
:103ACC007BE0FF125C0C127465126DD21261B4EFC4
:103ADC007003023BC97F0A12740A127A2AEF700330
:103AEC00023BC97F06023BC312704E7009127CD791
:103AFC001278C5123BE9123BCA6003023BC9127132
:103B0C00B0127046700F127C7A7F07126F1BE49014
:103B1C000576F0801E900402E07018900576E0FFA8
:103B2C0004F0D3EF9402748094804007E4F07F019A
:103B3C00126F1B023BB612704E70387B017A0579FE
:103B4C0084900406121A497A0509900409121A493C
:103B5C007A057983125CB5900584E0FF90057BE0D3
:103B6C00FD1273AC12703F126AC5E490057DF090A3
:103B7C000580F07A057972127024126605EF6401E3
:103B8C00703B125DE812704670151255367F0712A5
:103B9C00737C9005807401F01279F47F0880089092
:103BAC000402E070057F04126F1B12703F026AC59D
:0D3BBC00E4900587F07F09026F1B1251890C
:103BC900227B017A0579727F1E7E007D007C0012BE
:103BD9006605EF6401227B017A057972126AC522B2
:0F3BE9007B017A057972126AC5E490057DF0229E
:097BD700123A0C124A4D02765AD2
:105E790062757273743A30782530326278004D4910
:105E890050492054585B485D3A2048746F74616CDE
:105E99003A25642C486163746976653A25642C480F
:105EA90073773A25642C4866703A25642C486270E9
:105EB9003A25642C4873706F6C3A256264004D4929
:105EC90050492054585B565D3A2056746F74616C82
:105ED9003A25642C566163746976653A25642C56B3
:105EE90073773A25642C5666703A25642C5662708D
:0E5EF9003A25642C5673706F6C3A2562640073
:0E1B3C004405480000000044054C0000000075
:104C8B00900594E0C313FCA3E013FD900592E0C3E1
:104C9B0013FEA3E01322900402E0FEA3E09004169F
:104CAB00FFFBAA06E4F9F81219C802184D7FA07E83
:104CBB00257D267C001219D4D302190390055BE0E5
:104CCB00FFE4FCFDFE9005631219D41217C2E47BBE
:104CDB0002FAF9F80217C22DFFEE3CFE900404E035
:104CEB00FCA3E0FD12168F900402E0FCA3E0FD0292
:104CFB0016A1900406E0FEA3E0FBAA06E42212191B
:104D0B00D490040E1219C80217B4FDE43CFC9005B4
:104D1B005F0219E0900404EEF0A3EFF0227B017A1E
:104D2B0005795022900402021A29E0FFA3E09004B7
:104D3B0019CFF0A3EFF022E0FFA3E090041BCFF01C
:104D4B00A3EFF022E0FFA3E090041DCFF0A3EFF060
:104D5B002290055F1219C8EF221217A7A804A90504
:104D6B00AA06AB07227C001219D4C3021903E4FC78
:104D7B00FD90040A229004160219E0900416021901
:074D8B00C890040E0219E0BC
:1077A3007E007F1B7D00124D28121AB1900557747D
:0A77B30001F090EAB9E04440F02232
:1077BD00900557E06F6012EFF09005507401F0EFF7
:0A77CD00640570057F04127B2F2273
:066CA500900402121A49DE
:106CAB009004067401F0121615900405F0AD077FE1
:106CBB00011278F1900405E0FF24FE24FB500A2416
:106CCB00FE600D24FD60108015124D2F7401801293
:106CDB00124D2F7407800B124D2F740A8004124D26
:056CEB002FEF12165B03
:016CF0002281
:10527C009005671219EC00000000124CC7C006C064
:10528C000790055DE0FF90055CE08FF0A4AEF0FBAD
:10529C00AA06E4F9F8D007D00612184D900548126A
:1052AC0019E09005481219C8124D19900552E0608A
:1052BC004A12734CEF64017017127C8FEF6401700B
:1052CC000F124D5C2420FFEE34BFFEED340280380B
:1052DC001276D8EF640190055F70101219C8EF2494
:1052EC00F0FFEE3449FEED3402800E1219C8EF24A3
:1052FC00C0FFEE34D4FEED3401800D124D5C2480E1
:10530C00FFEE3438FEED3401124D1590055CE0646F
:10531C0002700F124D5C2440FFEE349CFEE43D12F3
:10532C004D157F807E1A7D0690055F124D70500AD8
:10533C0090055F1219EC00061A8090055F124CB8AC
:10534C00400A90055F1219EC002625A09005481222
:0E535C0019D490055F124D0F9005670219E0FD
:1057B2009005567401F090055D04F090055C14F0BC
:1057C200900552F07BFF7A5E7979900415F0E4FF40
:1057D200125F07900558E0121A5E57FE0058060144
:1057E200580802580604580805581007581808584F
:1057F200060958060A58080B0000580690055B7403
:1058020012F08020801890055B741EF080169005BF
:105812005B7410F0800E90055B7414F080069005A6
:105822005B7418F0124D281268F8124CC7C007902A
:10583200055DE0FBE4FAF9F8D00712184D90040276
:105842001219E0900402124CB8400B90055C7402ED
:10585200F090055E14F090055DE06408700F90050D
:105862005C04F0900553F0E490055EF02290055C34
:0A587200E06402700590055E04F08A
:01587C002209
:1043160090E580E020E20B900582E06401600302F4
:10432600444B7B017A057988124D92900592E0FE06
:10433600A3E0FF90058FE02FFF90058EE03EFE90F4
:104346000591E02FFF900590E03EFE900595E02F49
:10435600FF900594E03EFE90058CE06E7003A3E0AE
:104366006F600302444890059CE0FEA3E0FF9005C1
:1043760098E0FCA3E0FD2FFFEC3EFE90059BE02FAE
:10438600FF90059AE03EFE90059FE02FFF90059E68
:10439600E03EFE900596E06E7003A3E06F600302B8
:1043A6004448ED30E00302444890058EE0FEA3E069
:1043B600FF30E0030244487BFF7A5E798790058CE4
:1043C600E0FDA3E0900415CDF0A3EDF0A3EEF0A37D
:1043D600EFF0900592124D35900590124D429005E2
:1043E60094124D4F9005A012444E7BFF7A5E79C71A
:1043F600900596E0FFA3E0900415CFF0A3EFF090B0
:104406000598E0FFA3E0900417CFF0A3EFF0900526
:104416009C124D3590059A124D4290059E124D4FB5
:104426009005A112444E7B017A0579881262B790F5
:1044360005A0E0FF1279449005A1E0FF1279587FAC
:1044460001227F00227F0022E090041FF07F0112EC
:034456005F0722DB
:1061300090E102E0540FC394017480948040129067
:10614000EA8AE02403FEE433900402F0A3CEF08058
:1061500058900552E06401702890EA8AE075F003D7
:10616000A4FF90EAA6E07C002FFFEC35F0CF2409D5
:10617000CF3400FE7D021216F6EF2414FFE43E80B9
:106180002190EAA6E0240DFFE433FE7C007D02129C
:1061900016F690EA8AE07C002FFFEC3ECF2414CF65
:1061A0003400900402F0A3EFF0900402E0FEA3E0BC
:0461B000FF02761460
:10360200E47BE87A03F9F8900563124CB290040265
:10361200EEF0A3EFF0E47BD07A07F9F890055F12A1
:103622004CB2124D1F900404E0FEA3E07803CEC317
:1036320013CE13D8F9FF124D1F90055CE0F9FD7C03
:103642000012168F124D1F90055DE064087012E99A
:103652006401700D900405E025E0F0900404E0336D
:10366200F012796C900406EEF0A3EFF012798090DC
:103672000408EEF0A3EFF0124C8B124CE2124D79DB
:103682001219E0900406E0FEA3E0FF124D79124CFD
:10369200C04024900594E0124C90124CE290040633
:1036A200E0FCA3E0FDC3EF9DFFEE9CFEE4FCFD9079
:1036B20004121219E0800A9004121219EC000000A0
:1036C2000090055CE064017076124C8B2DFDEE3C9F
:1036D200FC90058E124C992DFFEC3EFE900404E006
:1036E200FCA3E0FD121A84124D80124CA190040A30
:1036F2001219E0900408E0FEA3E0FF900407E02F17
:10370200FF900406E03EFE124D79124CC040241296
:103712004CA1C006C007124CFDF9F8D007D0061222
:1037220017B4C006C007A3124D00D007D006121767
:10373200B480129004161219EC0000000080099067
:1037420004121219C8124D80124D86900412124CA6
:10375200C040099004121219C8124D8090055BE016
:1037620025E0FFE433AB07FA3395E0F9F8E4FF7E96
:1037720080FDFC12184D124D8C124C96FFE4FCFD9C
:1037820090040E1219D4124D64900594124C99FFB4
:10379200E4FCFD124D64900404E0FEA3E0FFE4FCAF
:1037A200FD1217C2124D8C900402E0FEA3E09004B9
:1037B2000E124CABC006C007124CFDF9F8D007D070
:1037C200061217B4124D8C124D8690040E124CC084
:1037D20040307F407E0D7D03900567124D7090044E
:1037E200164008124D09E47B148006124D09E47B51
:1037F2000AFAF9F812184D9004161219D41217A7E2
:103802008003124D8690041A1219E090041A1219BC
:04381200C8027A7FEF
:1066E80090055DE0FF12763790E5D87404F09000CD
:1066F800007401F09000007423F090E5DB7404F05E
:106708009000007401F09000007423F090055CE0A4
:10671800FF127538127BC1127C81900552E0FF127E
:1067280079E17F01127994900553E064017009FFC3
:106738001279947F011279CE90055CE0FF127AFD00
:1067480090055EE0FF127A8E900558E0FF0268958A
:037CE000023F263A
:107438007B017A05794C7F967E007D007C00126680
:1074480005EF640170167B017A05794C126AC590C4
:0C745800EA7AE0FF54F06004EF540FF0FB
:017464002205
:1056E500900557E024FD603414604E14607C1470FE
:1056F5000302579914700302579E2405600302574D
:10570500A1900550E0640170031257A2900554E082
:10571500640160030257A17F0302579B900550E087
:10572500640170031257A2900555E06401706D1273
:105735004316EF60677F04805D1257B212527C12E8
:105745004D28122B1F124D28122D701266E8127C5F
:10575500E01261301236027F051277BD900552E0E6
:10576500640170381274BC0272E990E29EE0544004
:10577500FFC41313540364017022900552E07006B0
:105785001274BC1272E9900556E0FF7D01126A6E33
:105795007F0680027F070277BD1274382290055676
:0D57A500E0FFE4FD126A6EE4900550F02272
:106E9900900557E0D3940274809480400B90055478
:106EA900E070057F021277BD900557E0D394037413
:106EB900809480400B900555E070057F031277BDE3
:106EC900900557E0C394067480948040031246CB22
:016ED9002296
:067C9500126E990256E593
:041B4A004105B5009C
:067C9B00E49005B6F022A2
:0C7B23009005B67401F09005B8EFF02258
:067CA1009005B6E0FF2291
:067CA700E49005B6F02296
:067CAD009005B8E0FF2283
:067CB300E49005B7F02289
:0C7B2F009005B77401F09005B4EFF0224F
:067CB9009005B7E0FF2278
:067CBF00E49005B7F0227D
:067CC5009005B4E0FF226F
:107142009005597401F0E4A3F0900559E0900551BF
:107152007003F080037401F0900583E0640370060D
:107162009005597403F0900559E0FFA3E0FD125A0F
:07717200B3900558EFF02275
:10737C00EF24FE601314601614601824FD601A24A8
:10738C0006701C9005548014E4900554F02290056E
:10739C00558009E4900555F0229005B57401F02252
:107250009005B5E0602D127BE07FC87E00127714A8
:10726000127142900583E0FF900559E0FD1277D737
:10727000900559E0FF7B017A057958126CA5E490DE
:0472800005B5F0223E
:107583005247420059555634323200595556343415
:10759300340059555634323000FF7583FF7587FF29
:0575A300758EFF7595D7
:0C1B4E004105C4004105C27F4105C303EE
:0C7B3B0090E568E04410F054F8F0F022EF
:1078F100ED64027003027B3BEF6401600790E56871
:05790100E054E0F0225B
:107A0600E490E565F090E566F090E567F090E5684E
:027A1600F0225C
:067CCB0090E562EFF022DB
:10778800EFFDC3747F9D7480F89890E561E05480A4
:0B7798004004F04FF022F0447FF0228C
:087BF20090E560E054FEF02272
:1075F1009005C4E090E561700EE0547FF09005C302
:10760100E0FF127CCB8004E04480F09005C2E0FFF3
:0376110002778875
:1078830090E560E054FDF07F057E0012771490E5EB
:0678930060E04402F02257
:097BE000127BF21275F1027883A8
:1079A80090E55FE0FF5402C3136005EF5401FF2226
:0379B8007F022229
:087BFA0090E566E04440F02232
:087C020090E567E04404F02264
:0E7AAC0090E565E04410F054F8F04401F0223B
:1078550090E568E04480F0EF7005E054BFF02290B9
:07786500E568E04440F02259
:10786C0090E565E04480F0EF7005E054BFF02290A5
:07787C00E565E04440F02245
:1077D700127A06ED64017011EF24FE60092402702D
:0A77E70008127AAC8000127BFA222F
:1074E700EFF0E47B08FAF9F890055F1219C8021863
:1074F7004DE0FCA3E0FDEC22E0C313FCA3E013FD89
:0A750700EC22EFF09005630219C8B2
:1033ED00900404EFF090E084E06F70030235FF90DD
:1033FD000404E090E084F06401600302355A127514
:10340D000B781012191490E08512750978081219AD
:10341D001490E08612750990E0871274E778101207
:10342D00191490E0921274E7780812191490E09331
:10343D001274E790E094EFF090055DE090E095F068
:10344D00900558E090E096F0640A90058C704A1251
:10345D0074F890E088F090E089EDF090058E12748C
:10346D00F890E08CF090E08DEDF09005921274F8EC
:10347D0090E098F090E099EDF09005901274F8902E
:10348D00E09AF090E09BEDF09005941274F890E0C6
:10349D009CF090E09DEDF080521274FF90E088F06A
:1034AD00AF0590E089EFF090058E1274FF90E08CDF
:1034BD00F0AF0590E08DEFF09005921274FF90E063
:1034CD0098F0AF0590E099EFF09005901274FF9091
:1034DD00E09AF0AF0590E09BEFF09005941274FF29
:1034ED0090E09CF0AF0590E09DEFF0900596127482
:1034FD00F890E08AF090E08BEDF09005981274F85A
:10350D0090E08EF090E08FEDF0900578E090E091F6
:10351D00F090059C1274F890E09EF090E09FEDF015
:10352D0090059A1274F890E0A1F090E0A2EDF09061
:10353D00059E1274F890E0A3F090E0A4EDF09005D4
:10354D00A0E090E0A5F09005A1E00235DE90040426
:10355D00E0FF7E0060030235E490E085F090E086A8
:10356D00F090E087F090E088F090E089F090E08AAC
:10357D00F090E08BF090E08CF090E08DF090E08E8C
:10358D00F090E08FF090E091F090E092F090E09369
:10359D00F090E094F090E095F090E096F090E09847
:1035AD00F090E099F090E09AF090E09BF090E09C24
:1035BD00F090E09DF090E09EF090E09FF090E0A103
:1035CD00F090E0A2F090E0A3F090E0A4F090E0A5E0
:1035DD00F090E0A6F08018EF64034E700690057829
:1035ED00E08008900404E06402700490E091F07FA4
:0535FD0001227F002205
:10793000E4FDFF1238167F327E001277147D01E4D9
:04794000FF023816F4
:1024660000FFFFFFFFFFFF004469010000000000BE
:1024760026200103804627782A5FB1A2574FA2285B
:102486000F5054000000714F810081C0818095007B
:10249600A9C0B3000101023A801871382D40582CAA
:1024A6004500BA882100001E011D007251D01E2071
:1024B6006E285500C48E2100001E000000FC00504E
:1024C600696E67750A20202020202020000000FD6C
:1024D60000323C143C3C000A202020202020012A07
:1024E60002031F7247901F041301021123090701FB
:1024F6008301000067030C0010000044E200FF00A7
:1025060000000000000000000000000000000000C5
:1025160000000000000000000000000000000000B5
:1025260000000000000000000000000000000000A5
:102536000000000000000000000000000000000095
:102546000000000000000000000000000000000085
:10255600000000000000000000000000000000E68F
:1025660000FFFFFFFFFFFF004469010000000000BD
:1025760026200103804627782A5FB1A2574FA2285A
:102586000F5054000000714F810081C0818095007A
:10259600A9C0B3000101023A801871382D40582CA9
:1025A6004500BA882100001E011D007251D01E2070
:1025B6006E285500C48E2100001E000000FC00504D
:1025C600696E67750A20202020202020000000FD6B
:1025D60000323C143C3C000A202020202020012A06
:1025E60002031F7247901F041301021123090701FA
:1025F6008301000067030C0020000044E200FF0096
:1026060000000000000000000000000000000000C4
:1026160000000000000000000000000000000000B4
:1026260000000000000000000000000000000000A4
:102636000000000000000000000000000000000094
:102646000000000000000000000000000000000084
:10265600000000000000000000000000000000D69E
:1026660000FFFFFFFFFFFF004469010000000000BC
:1026760026200103804627782A5FB1A2574FA22859
:102686000F5054000000714F810081C08180950079
:10269600A9C0B3000101023A801871382D40582CA8
:1026A6004500BA882100001E011D007251D01E206F
:1026B6006E285500C48E2100001E000000FC00504C
:1026C600696E67750A20202020202020000000FD6A
:1026D60000323C143C3C000A202020202020012A05
:1026E60002031F7247901F041301021123090701F9
:1026F6008301000067030C0030000044E200FF0085
:1027060000000000000000000000000000000000C3
:1027160000000000000000000000000000000000B3
:1027260000000000000000000000000000000000A3
:102736000000000000000000000000000000000093
:102746000000000000000000000000000000000083
:10275600000000000000000000000000000000C6AD
:102766000000000000000000000000000000000063
:102776000000000000000000000000000000000053
:102786000000000000000000000000000000000043
:102796000000000000000000000000000000000033
:1027A6000000000000000000000000000000000023
:1027B6000000000000000000000000000000000013
:1027C6000000000000000000000000000000000003
:1027D60000000000000000000000000000000000F3
:1027E60000000000000000000000000000000000E3
:1027F60000000000000000000000000000000000D3
:1028060000000000000000000000000000000000C2
:1028160000000000000000000000000000000000B2
:1028260000000000000000000000000000000000A2
:102836000000000000000000000000000000000092
:102846000000000000000000000000000000000082
:102856000000000000000000000000000000000072
:101B5A006200000100FFFFFFFFFFFF003AC4040B11
:101B6A0001000000041B0103806F3E780AEE91A376
:101B7A00544C99260F5054010800814061408180DD
:101B8A00D100810071409500B30008E80030F2707E
:101B9A005A80B0588A0055502100001E0474003043
:101BAA00F2705A80B0588A0055502100001E000079
:101BBA0000FD00184B0F873C000A2020202020201F
:101BCA00000000FC004C54363931315558450A2082
:101BDA002020014902032A704961105F220443014F
:101BEA00031223090407830100006B030C00100091
:101BFA00003C2000200167D85DC401788000000005
:101C0A0000000000000000000000000000000000CA
:101C1A0000000000000000000000000000000000BA
:101C2A0000000000000000000000000000000000AA
:101C3A00000000000000000000000000000000009A
:101C4A00000000000000000000000000000000008A
:101C5A00000000AE000000000000000000000000CC
:101C6A00000000000000000000000000000000006A
:101C7A00000000000000000000000000000000005A
:101C8A00000000000000000000000000000000004A
:101C9A00000000000000000000000000000000003A
:101CAA00000000000000000000000000000000002A
:101CBA00000000000000000000000000000000001A
:101CCA00000000000000000000000000000000000A
:101CDA0000000000000000000000000000000000FA
:101CEA0000000000000000000000000000000000EA
:101CFA0000000000000000000000000000000000DA
:101D0A0000000000000000000000000000000000C9
:101D1A0000000000000000000000000000000000B9
:101D2A0000000000000000000000000000000000A9
:101D3A000000000000000000000000000000000099
:101D4A000000000000000000000000000000000089
:101D5A00000000006200020200FFFFFFFFFFFF0019
:101D6A0060ED3181010000000A200103801009782A
:101D7A000A0DC9A05747982712484C2000000101B4
:101D8A000101010101010101010101010101023AFF
:101D9A00801871382D40582C450020C23100001E91
:101DAA000000001000000000000000000000000019
:101DBA000000000000FD0016480F5A20000A2020EB
:101DCA0020202020000000FC00436F6E6E656374C3
:101DDA006F7220320A20014E02031A71471F9013B4
:101DEA000402223E230907078301000065030C0051
:101DFA001000023A801871382D40582C450020C234
:101E0A003100000000000000000000000000000097
:101E1A0000000000000000000000000000000000B8
:101E2A0000000000000000000000000000000000A8
:101E3A000000000000000000000000000000000098
:101E4A000000000000000000000000000000000088
:101E5A0000000000000000F900000000000000007F
:101E6A000000000000000000000000000000000068
:101E7A000000000000000000000000000000000058
:101E8A000000000000000000000000000000000048
:101E9A000000000000000000000000000000000038
:101EAA000000000000000000000000000000000028
:101EBA000000000000000000000000000000000018
:101ECA000000000000000000000000000000000008
:101EDA0000000000000000000000000000000000F8
:101EEA0000000000000000000000000000000000E8
:101EFA0000000000000000000000000000000000D8
:101F0A0000000000000000000000000000000000C7
:101F1A0000000000000000000000000000000000B7
:101F2A0000000000000000000000000000000000A7
:101F3A000000000000000000000000000000000097
:101F4A000000000000000000000000000000000087
:081F5A0000000000000000007F
:106E1600900403121A298D828C8312162E90E89400
:106E2600F00D223EF583E0FF90050BE02FF00922DE
:106E360074052FF58274043EF583E0FD2290050863
:106E4600E09F900507E09E2290050BE0FFC3E49FBC
:026E5600FF2219
:0669B900900403121A49CC
:1069BF00E490E807F090E8087481F07401F0900417
:1069CF0003121A2990007E12162E04D3940274809B
:1069DF009480401A90E806E04440F0E4FCFD126E0B
:1069EF0016BD00010CE4B505F5ECB402F12290E8F8
:1069FF0006E054BFF0E4FCFD126E16BD00010CE47E
:076A0F00B505F5ECB401F13F
:016A1600225D
:10790600EF640190E8087008E04402F054FEF022AB
:05791600E054FDF02229
:10445900900507ECF0A3EDF0900505EEF0A3EFF061
:104469004E70037F0122C3900508E09480900507F0
:10447900E0940050037F0222900505E0FEA3E024AA
:104489007EF582E43EF583E0900509F0D394047447
:1044990080948040037F0322900509E0FFE4FCFD3E
:1044A900FE7BFE7A01F9F8C31218ED50037F04224E
:1044B900900509E02401FFE433FEEF7807C333CE0A
:1044C90033CED8F9FFC3126E4350037F0422E49020
:1044D900050BF0F9E9C3947F74809480501090051E
:1044E90005E0FEA3E029F582E4126E2980E6126E4A
:1044F9004E900505E0FCA3E0247FF582E43CF583BA
:10450900EFF090050A7401F0900509E0FFA3E0FEC1
:10451900D39F5075E4A3F0EE75F080A4FFAEF0A32D
:10452900EEF0A3EFF0247FFFE43EFED3126E43507A
:10453900037F0422E4F9E9C3947F74809480501FB7
:10454900E9FF90050DE02FFF90050CE03400FE9087
:104559000505E0FCA3E02FF582EC126E2980D71245
:104569006E4E90050DE0247FFD90050CE03400FCB3
:10457900900505E0FAA3E02DF582EA3CF583EFF01A
:0B45890090050AE004F00245117F00DD
:014594002204
:10545600E4900403F0A3F078057C047D017BFF7AD9
:105466002779667E01FF1215EF7B017A0479059094
:105476000508121A4990050B7401F0A3E4F01B7D90
:1054860080FF1247FD900405E06003025535A3E056
:10549600F46003025535A3E0F46003025535A3E03A
:1054A600F46003025535A3E0F46003025535A3E02A
:1054B600F4707CA3E0F47077A3E07073900485E049
:1054C6006402706BA3E064037065900484E090044A
:1054D60003F0900504E0900404F07E047F057D004F
:1054E6007C01124459900484E0FF900403E06F703D
:1054F6003E900504E0FF900404E06F7032FFFE90DA
:1055060005C7E06401700C126E3674022FF58274C2
:1055160002800A126E3674012FF58274003EF583FE
:0F552600EDF00FBF00010EE4B507D4EEB401D0D5
:015535002253
:1028660039E0ABBA15FF0115801015831615908156
:1028760015FF021580BC15815015825015A2B015A2
:10288600A34915A46B15A53415A62215A73415A8BA
:102896002215A95115AAD415ABA615AC0515ADABD5
:1028A60015AE3B15AF1B15B01E15B1AB15B2C11554
:1028B600B32215B4FF15B5CC15B62315B70115BF50
:1028C6000015C00E15C10015C2FF15C30815C5FFBA
:1028D60015C70015C80515C91215CA2915CB411506
:1028E600CE0615D17F15D26A15D36315D46315D5D7
:1028F6006115D66115D75D15D85B15D95515DA4D15
:1029060015DB4B15DC4915DD4715DE4315DF2715AD
:10291600E01415E10015E27F15E36A15E46315E599
:102926006315E66115E76115E85D15E95B15EA557E
:1029360015EB4D15EC4B15ED4915EE4715EF431507
:10294600F02715F11415F20015FF03159D0015FF6C
:10295600041580CD1581CB1582A915838C15844667
:102966001585661586661587641588A01589081568
:102976008AA0158B08158C02158D81158E00158F72
:102986000015900015910515920015930F159400EA
:1029960015950815960015970015980015990015B8
:1029A6009A00159B01159C00159D74159E12159F86
:1029B600B215A00715A1A015A20815A36015A408B5
:1029C60015A50215A65415A78015A80015A900156A
:1029D600AA0015AB0015AC0015AD0015AE0015AF7D
:1029E6000015B00015B10015B20015B30015B409F5
:1029F60015B50115B61315B70815B81215B9001592
:102A0600BA0315BB0015BC0015BD0115BE7015BF78
:102A1600BA15C09815C17615C25415C33215C4101F
:102A260015C5CD15C6EF15C70015C80015C9201563
:102A3600CB2115CD0B15CF1015D01215D11415D2EB
:102A46001615D31815D41A15D50515D60715D70991
:102A560015D90015DA0015DB0015DC0015DD20158B
:102A6600DF2115E30B15E51115E61315E71515E836
:102A76001715E91915EA1B15EB0615EC0815ED0AED
:102A860015EF0015F00015F1A215F21815F3111542
:102A9600F40015F51115F60015F71115F80015F9DE
:102AA6000015FA0015FB0015FC2015FD0015FE00AB
:102AB60015FF05158FE815908415917715FF0615F6
:102AC600801015810015820715839F15FF07158055
:102AD6001415811215820215832015842415850C80
:102AE600158639158777158880158933158A001557
:102AF6008B04158C09158D40158E40159111159274
:102B06002C15932D15940315A00A15A21315FF0075
:092B16000511000529001536C661
:1070CE00E090EA98F012161590EA98F090000112EE
:1070DE00162E90EA98F02212161590EA98F0740186
:1070EE0029F9E43AFA0F2290EA9AF090EA99740498
:0C70FE00F022E490EA9AF090EAABF02255
:1070920090EAA27403F0E490EAABF090EAB67410BE
:1070A200F090EAA37404F090EA9A74C2F090EA9B1A
:1070B2007446F090EA9C7410F090EA9D7450F0903F
:0C70C200EA9E7410F090EA9F7450F022D7
:076831009005C8EFF0AC0573
:10683800ECD3947A7480948040027C7A90EAA0E049
:1068480054EFF09005C8E0F58264296006E582649B
:1068580039702490EA9A74E0F0EC240690EA99F0F2
:106868009005C8E090EA98F0ECF0E4F0FFEFC39CE4
:1068780050101270E580F674C01270F59005C812B9
:0C68880070CE7F017E00127714127100A8
:0168940022E1
:056C09009005C9EFF049
:106C0E0090EAA07410F0ED6402700D74C21270F56B
:106C1E009005C91270CE802490EA9A74E2F0ED24A9
:106C2E000690EA99F09005C9E090EA98F0EDF0E44C
:106C3E00F0FFEFC39D50051270E580F67F017E00D8
:086C4E00127714E490EAABF0A8
:016C5600221B
:040006001271002251
:10000E001270927F057E00127714902866E493FF9B
:10001E007BFF7A2879677D0312683190286A7A28E7
:10002E00796B12093C90286D7A28796E12093C90F2
:10003E0028707A2879711209479028737A28797472
:10004E001209479028767A287977120952902879E2
:10005E007A28797A12095290287C7A28797D1209A9
:10006E005D90287F7A28798012095D9028827A28FF
:10007E0079831209689028857A2879861209689002
:10008E0028887A28798912097390288B7A28798C96
:10009E0012097390288E7A28798F12097E902891F2
:1000AE007A28799212097E9028947A2879951209E5
:1000BE00899028977A28799812098990289A7A280F
:1000CE00799B12099490289D7A28799E1209949012
:1000DE0028A07A2879A112099F9028A37A2879A4BA
:1000EE0012099F9028A67A2879A71209AA9028A902
:1000FE007A2879AA1209AA9028AC7A2879AD120921
:10010E00B59028AF7A2879B01209B59028B27A281E
:10011E0079B31209C09028B57A2879B61209C09021
:10012E0028B87A2879B91209CB9028BB7A2879BCDD
:10013E001209CB9028BE7A2879BF1209D69028C111
:10014E007A2879C21209D69028C47A2879C512095C
:10015E00E19028C77A2879C81209E19028CA7A282E
:10016E0079CB1209EC9028CD7A2879CE1209EC9031
:10017E0028D07A2879D11209F79028D37A2879D401
:10018E001209F79028D67A2879D7120A029028D920
:10019E007A2879DA120A029028DC7A2879DD120A96
:1001AE000D9028DF7A2879E0120A0D9028E27A283D
:1001BE0079E3120A189028E57A2879E6120A18903F
:1001CE0028E87A2879E9120A239028EB7A2879EC24
:1001DE00120A239028EE7A2879EF120A2E9028F12F
:1001EE007A2879F2120A2E9028F47A2879F5120AD2
:1001FE00399028F77A2879F8120A399028FA7A284D
:10020E0079FB120A449028FD7A2879FE120A44904E
:10021E0029007A297901120A4F9029037A29790443
:10022E00120A4F9029067A297907120A5A9029093B
:10023E007A29790A120A5A90290C7A29790D120A0A
:10024E006590290F7A297910120A659029127A2958
:10025E007913120A709029157A297916120A70905C
:10026E0029187A297919120A7B90291B7A29791C67
:10027E00120A7B90291E7A29791F120A869029214B
:10028E007A297922120A869029247A297925120A46
:10029E00919029277A297928120A9190292A7A2968
:1002AE00792B120A9C90292D7A29792E120A9C906C
:1002BE0029307A297931120AA79029337A2979348B
:1002CE00120AA79029367A297937120AB29029395B
:1002DE007A29793A120AB290293C7A29793D120A82
:1002EE00BD90293F7A297940120ABD9029427A2978
:1002FE007943120AC89029457A297946120AC8907C
:10030E0029487A297949120AD390294B7A29794CAE
:10031E00120AD390294E7A29794F120ADE9029516A
:10032E007A297952120ADE9029547A297955120ABD
:10033E00E99029577A297958120AE990295A7A2987
:10034E00795B120AF490295D7A29795E120AF4908B
:10035E0029607A297961120AFF9029637A297964D2
:10036E00120AFF9029667A297967120B0A90296979
:10037E007A29796A120B0A90296C7A29796D120BF7
:10038E001590296F7A297970120B159029727A2996
:10039E007973120B209029757A297976120B209099
:1003AE0029787A297979120B2B90297B7A29797CF5
:1003BE00120B2B90297E7A29797F120B3690298188
:1003CE007A297982120B369029847A297985120B33
:1003DE00419029877A297988120B4190298A7A29A6
:1003EE00798B120B4C90298D7A29798E120B4C90A9
:1003FE0029907A297991120B57127B539029937A6F
:10040E00297994120B579029967A297997120B62B3
:10041E009029997A29799A120B6290299C7A2979D6
:10042E009D120B6D90299F7A2979A0120B6D902940
:10043E00A27A2979A3120B789029A57A2979A61286
:10044E000B789029A87A2979A9120B839029AB7A77
:10045E002979AC120B839029AE7A2979AF120B8EC3
:10046E009029B17A2979B2120B8E9029B47A297912
:10047E00B5120B999029B77A2979B8120B99902950
:10048E00BA7A2979BB120BA49029BD7A2979BE12AA
:10049E000BA49029C07A2979C1120BAF9029C37A87
:1004AE002979C4120BAF9029C67A2979C7120BBAD3
:1004BE009029C97A2979CA120BBA9029CC7A29794E
:1004CE00CD120BC59029CF7A2979D0120BC5902960
:1004DE00D27A2979D3120BD09029D57A2979D612CE
:1004EE000BD09029D87A2979D9120BDB9029DB7A97
:1004FE002979DC120BDB9029DE7A2979DF120BE6E3
:10050E009029E17A2979E2120BE69029E47A297989
:10051E00E5120BF19029E77A2979E8120BF190296F
:10052E00EA7A2979EB120BFC9029ED7A2979EE12F1
:10053E000BFC9029F07A2979F1120C079029F37AA5
:10054E002979F4120C079029F67A2979F7120C12F0
:10055E009029F97A2979FA120C129029FC7A2979C4
:10056E00FD120C1D9029FF7A2A7900120C1D902A7B
:10057E00027A2A7903120C28902A057A2A79061211
:10058E000C28902A087A2A7909120C33902A0B7AB1
:10059E002A790C120C33902A0E7A2A790F120C3EFD
:1005AE00902A117A2A7912120C3E902A147A2A79FC
:1005BE0015120C49902A177A2A7918120C49902A8A
:1005CE001A7A2A791B120C54902A1D7A2A791E1235
:1005DE000C54902A207A2A7921120C5F902A237AC1
:1005EE002A7924120C5F902A267A2A7927120C6A0D
:1005FE00902A297A2A792A120C6A902A2C7A2A7938
:10060E002D120C75902A2F7A2A7930120C75902A99
:10061E00327A2A7933120C80902A357A2A79361258
:10062E000C80902A387A2A7939120C8B902A3B7AD0
:10063E002A793C120C8B902A3E7A2A793F120C961C
:10064E00902A417A2A7942120C96902A447A2A7973
:10065E0045120CA1902A477A2A7948120CA1902AA9
:10066E004A7A2A794B120CAC902A4D7A2A794E127C
:10067E000CAC902A507A2A7951120CB7902A537AE0
:10068E002A7954120CB7902A567A2A7957120CC22C
:10069E00902A597A2A795A120CC2902A5C7A2A79AF
:1006AE005D120CCD902A5F7A2A7960120CCD902AB9
:1006BE00627A2A7963120CD8902A657A2A796612A0
:1006CE000CD8902A687A2A7969120CE3902A6B7AF0
:1006DE002A796C120CE3902A6E7A2A796F120CEE3C
:1006EE00902A717A2A7972120CEE902A747A2A79EB
:1006FE0075120CF9902A777A2A7978120CF9902AC9
:10070E007A7A2A797B120D04902A7D7A2A797E12C2
:10071E000D04902A807A2A7981120D0F902A837AFD
:10072E002A7984120D0F902A867A2A7987120D1A49
:10073E00902A897A2A798A120D1A902A8C7A2A7925
:10074E008D120D25902A8F7A2A7990120D25902AD6
:10075E00927A2A7993120D30902A957A2A799612E6
:10076E000D30902A987A2A7999120D3B902A9B7A0D
:10077E002A799C120D3B902A9E7A2A799F120D4659
:10078E00902AA17A2A79A2120D46902AA47A2A7961
:10079E00A5120D51902AA77A2A79A8120D51902AE6
:1007AE00AA7A2A79AB120D5C902AAD7A2A79AE120A
:1007BE000D5C902AB07A2A79B1120D67902AB37A1D
:1007CE002A79B4120D67902AB67A2A79B7120D7269
:1007DE00902AB97A2A79BA120D72902ABC7A2A799D
:1007EE00BD120D7D127B53902ABF7A2A79C0120D4D
:1007FE007D902AC27A2A79C3120D88902AC57A2A48
:10080E0079C6120D88902AC87A2A79C9120D93904A
:10081E002ACB7A2A79CC120D93902ACE7A2A79CFC6
:10082E00120D9E902AD17A2A79D2120D9E902AD438
:10083E007A2A79D5120DA9902AD77A2A79D8120D4B
:10084E00A9902ADA7A2A79DB120DB4902ADD7A2A57
:10085E0079DE120DB4902AE07A2A79E1120DBF905A
:10086E002AE37A2A79E4120DBF902AE67A2A79E7EA
:10087E00120DCA902AE97A2A79EA120DCA902AEC48
:10088E007A2A79ED120DD5902AEF7A2A79F0120D87
:10089E00D5902AF27A2A79F3120DE0902AF57A2A67
:1008AE0079F6120DE0902AF87A2A79F9120DEB906A
:1008BE002AFB7A2A79FC120DEB902AFE7A2A79FF0E
:1008CE00120DF6902B017A2B7902120DF6902B0455
:1008DE007A2B7905120E01902B077A2B7908120EBE
:1008EE0001902B0A7A2B790B120E0C902B0D7A2B72
:1008FE00790E120E0C902B107A2B7911120E179076
:10090E002B137A2B7914120E17902B167A2B79172C
:10091E00120E227F207E03127714902B197A2B79D8
:10092E001A120E227FC87E00127714020006E4937C
:10093E00FF7BFF7D0212683122E493FF7BFF7D0275
:10094E0012683122E493FF7BFF7D0212683122E4AC
:10095E0093FF7BFF7D0212683122E493FF7BFF7DC4
:10096E000212683122E493FF7BFF7D02126831226E
:10097E00E493FF7BFF7D0212683122E493FF7BFF3D
:10098E007D0212683122E493FF7BFF7D02126831F3
:10099E0022E493FF7BFF7D0212683122E493FF7BFA
:1009AE00FF7D0212683122E493FF7BFF7D02126805
:1009BE003122E493FF7BFF7D0212683122E493FF24
:1009CE007BFF7D0212683122E493FF7BFF7D0212D2
:1009DE00683122E493FF7BFF7D0212683122E4939B
:1009EE00FF7BFF7D0212683122E493FF7BFF7D02C5
:1009FE0012683122E493FF7BFF7D0212683122E4FC
:100A0E0093FF7BFF7D0212683122E493FF7BFF7D13
:100A1E000212683122E493FF7BFF7D0212683122BD
:100A2E00E493FF7BFF7D0212683122E493FF7BFF8C
:100A3E007D0212683122E493FF7BFF7D0212683142
:100A4E0022E493FF7BFF7D0212683122E493FF7B49
:100A5E00FF7D0212683122E493FF7BFF7D02126854
:100A6E003122E493FF7BFF7D0212683122E493FF73
:100A7E007BFF7D0212683122E493FF7BFF7D021221
:100A8E00683122E493FF7BFF7D0212683122E493EA
:100A9E00FF7BFF7D0212683122E493FF7BFF7D0214
:100AAE0012683122E493FF7BFF7D0212683122E44B
:100ABE0093FF7BFF7D0212683122E493FF7BFF7D63
:100ACE000212683122E493FF7BFF7D02126831220D
:100ADE00E493FF7BFF7D0212683122E493FF7BFFDC
:100AEE007D0212683122E493FF7BFF7D0212683192
:100AFE0022E493FF7BFF7D0212683122E493FF7B99
:100B0E00FF7D0212683122E493FF7BFF7D021268A3
:100B1E003122E493FF7BFF7D0212683122E493FFC2
:100B2E007BFF7D0212683122E493FF7BFF7D021270
:100B3E00683122E493FF7BFF7D0212683122E49339
:100B4E00FF7BFF7D0212683122E493FF7BFF7D0263
:100B5E0012683122E493FF7BFF7D0212683122E49A
:100B6E0093FF7BFF7D0212683122E493FF7BFF7DB2
:100B7E000212683122E493FF7BFF7D02126831225C
:100B8E00E493FF7BFF7D0212683122E493FF7BFF2B
:100B9E007D0212683122E493FF7BFF7D02126831E1
:100BAE0022E493FF7BFF7D0212683122E493FF7BE8
:100BBE00FF7D0212683122E493FF7BFF7D021268F3
:100BCE003122E493FF7BFF7D0212683122E493FF12
:100BDE007BFF7D0212683122E493FF7BFF7D0212C0
:100BEE00683122E493FF7BFF7D0212683122E49389
:100BFE00FF7BFF7D0212683122E493FF7BFF7D02B3
:100C0E0012683122E493FF7BFF7D0212683122E4E9
:100C1E0093FF7BFF7D0212683122E493FF7BFF7D01
:100C2E000212683122E493FF7BFF7D0212683122AB
:100C3E00E493FF7BFF7D0212683122E493FF7BFF7A
:100C4E007D0212683122E493FF7BFF7D0212683130
:100C5E0022E493FF7BFF7D0212683122E493FF7B37
:100C6E00FF7D0212683122E493FF7BFF7D02126842
:100C7E003122E493FF7BFF7D0212683122E493FF61
:100C8E007BFF7D0212683122E493FF7BFF7D02120F
:100C9E00683122E493FF7BFF7D0212683122E493D8
:100CAE00FF7BFF7D0212683122E493FF7BFF7D0202
:100CBE0012683122E493FF7BFF7D0212683122E439
:100CCE0093FF7BFF7D0212683122E493FF7BFF7D51
:100CDE000212683122E493FF7BFF7D0212683122FB
:100CEE00E493FF7BFF7D0212683122E493FF7BFFCA
:100CFE007D0212683122E493FF7BFF7D0212683180
:100D0E0022E493FF7BFF7D0212683122E493FF7B86
:100D1E00FF7D0212683122E493FF7BFF7D02126891
:100D2E003122E493FF7BFF7D0212683122E493FFB0
:100D3E007BFF7D0212683122E493FF7BFF7D02125E
:100D4E00683122E493FF7BFF7D0212683122E49327
:100D5E00FF7BFF7D0212683122E493FF7BFF7D0251
:100D6E0012683122E493FF7BFF7D0212683122E488
:100D7E0093FF7BFF7D0212683122E493FF7BFF7DA0
:100D8E000212683122E493FF7BFF7D02126831224A
:100D9E00E493FF7BFF7D0212683122E493FF7BFF19
:100DAE007D0212683122E493FF7BFF7D02126831CF
:100DBE0022E493FF7BFF7D0212683122E493FF7BD6
:100DCE00FF7D0212683122E493FF7BFF7D021268E1
:100DDE003122E493FF7BFF7D0212683122E493FF00
:100DEE007BFF7D0212683122E493FF7BFF7D0212AE
:100DFE00683122E493FF7BFF7D0212683122E49377
:100E0E00FF7BFF7D0212683122E493FF7BFF7D02A0
:0F0E1E0012683122E493FF7BFF7D0212683122BC
:107179004750494F352054726967676572204C6FD3
:1071890077004750494F3520547269676765722007
:107199004869676800527820506C756700527820FA
:0771A900556E706C75670064
:0B1F62004105BD004405B9000000006F
:1067C5009005BDE0602A90E29EE05440FFC413139B
:1067D5005403FFBF011AE4FDFF1238167B017A0549
:1067E50079B9126AC57BFF7A717979E4FF125F077F
:1067F5009005BDE0603590E29EE05440FFC4131360
:10680500540370277B017A0579B97F96FEFDFC124A
:106815006605BF0116E49005BDF07D01FF1238162F
:0B6825007BFF7A71798BE4FF125F07A4
:016830002245
:104927009005BDE06003024A49127CA1EF64016073
:1049370003024A1E127CAD900402EFF0127CA7908E
:104947000402E024FE603E1470030249D51470038C
:104957000249DC1470030249FB147003024A102455
:10496700056003024A1E90E82CE04401F07BFF7AC1
:1049770071799E7F01125F0790057C7401F0FF1229
:10498700737C024A1E90E105E054FBF04404F0906A
:10499700E82CE054FEF07BFF7A7179A67F01125F65
:1049A70007900556E0FFE4FD126A6EE4FF1233ED4F
:1049B700EF60069005BD7401F07F02126F1BE49053
:1049C700057CF0FF12767A7F0212737C80497F02A2
:1049D7001277BD8042E4FF126EDA900556E0FFE4DD
:1049E700FD126A6EE4FF1233EDEF602B9005BD7484
:1049F70001F080237F01126EDA7F031233EDEF603F
:104A0700169005BD7401F0800E7F021233EDEF6042
:104A1700069005BD7401F0127CB9BF0125127CC553
:104A2700900403EFF0127CBF900403E024FC6004C1
:104A37008010800E7F011233EDEF60069005BD7484
:054A470001F01267C53B
:014A4C002247
:01000A0022D3
:017CE300227E
:104F93004143523A20417564696F204E6F726D61CF
:104FA3006C2043616C63004143523A20417564694C
:104FB3006F205061747465726E2043616C63003DB1
:104FC3003D41435220696E69742073746172743D6C
:104FD3003D004143523A2049327320617564696F41
:104FE300206F7574004143523A2053706469662000
:104FF300617564696F206F757400417564696F2012
:1050030053616D706C65205061636B6574207365CB
:105013007420617564696F2044697361626C6521F2
:1050230000417564696F2053616D706C6520506138
:10503300636B65742073657420617564696F2045C3
:105043006E61626C65210025644B487A204175646A
:10505300696F205265636F766572792C204D3A3003
:105063007825303262782C204B3A30782530326202
:10507300782C204D2D533A307825303262782C200D
:0C5083004B2D533A307825303262780013
:101F6D004105450241051101410547014105460065
:101F7D00410544204105430060310512200B1062DC
:101F8D004DD2002C0B1694467301300B189374BC74
:101F9D0001580A1694467300600A189374BC00B079
:101FAD00091694467300C009189374BC00410510BE
:011FBD000023
:1073DC00900545E0FD30E10790EB2FE04401F0ED26
:1073EC0030E00990EB0BE04401F0800790EB0BE0F0
:0E73FC0054FEF090EB2274FFF090EB23F02291
:087C0A0090EB0AE054F0F022B7
:0B7B5E0090EB0BE04408F04480F022A4
:0B7B690090EB0BE054F7F0547FF0228B
:10623600900547E030E079127C0A900545E030E0B1
:106246000990EB0BE04401F0800590EB0BE0F09039
:106256000546E0B40105127B5E8003127B697D046E
:106266007F01125D527D047F02125D527D047F0321
:10627600125D527D047F04125D52E4FB7D027F04B1
:10628600120E2DE4FB7D027F01120E2DE4FB7D0232
:106296007F02120E2DE4FB7D027F03120E2DE4FB1E
:1062A600FD7F05120E2D90E109E054FEF04401F049
:0162B60022C5
:106F5B00900547E030E13890EB0AE04440F09005B3
:106F6B0045E030E00990EB0BE04401F0800790EB3B
:106F7B000BE054FEF07D057F07125D52E4FB7D02B2
:106F8B007F07120E2D90E109E054FEF04401F02230
:077C4200126236126F5B2293
:1077F100EFB4010B90E203E04440F04480F02290AA
:0A780100E203E054BFF0547FF022D0
:077C490090E2057443F022F4
:077C500090E2067416F02219
:077C570090E2047420F0220A
:077C5E00127C49127C502248
:104E9500E4FDFC90EB24E04404F04401F090EB2F9A
:104EA500E04408F0900511E0B4010990EB37E044C7
:104EB50001F0800790EB37E054FEF090EB08E044FA
:104EC50002F090EB097430F090E108E054EFF0E463
:104ED500FCFD90051275F007ED121A1DEC75F00733
:104EE500A42583F583E0FF900544E06F6003024F3E
:104EF5007D90051475F007ED121A1DEC75F007A4E9
:104F05002583F583E090EB13F090051575F007ED1B
:104F1500121A1DEC75F007A42583F583E090EB14B8
:104F2500F090051675F007ED121A1DEC75F007A443
:104F35002583F583E090EB15F090051775F007EDE7
:104F4500121A1DEC75F007A42583F583E090EB1686
:104F5500F090EB24E0540FFFF090051375F007ED8A
:104F6500121A1DEC75F007A42583F583E0FEC454E1
:104F7500F04F90EB24F0800E0DBD00010CED6407A1
:0D4F85004C6003024ED790EB17E04404F09F
:014F920022FC
:10731B00127C57900545E0FF601120E00E7BFF7A51
:10732B004F7993E4FF125F07127C5E900545E030C6
:10733B00E00E7BFF7A4F79AAE4FF125F07124E959E
:01734B00221F
:1076B9007BFF7A4F79C2E4FF125F07E4FF126EDAAB
:0F76C9001273DC127C42E4FF1277F112731B2262
:106EDA00EF700B90EB0AE054FEF054BFF0229005DD
:106EEA0047E030E01290EB0AE04401F07BFF7A4F72
:106EFA0079D57F01125F07900547E030E11290EBE8
:106F0A000AE04440F07BFF7A4F79E87F01125F077D
:016F1A002254
:10789900EF700B90E29FE04480F0547FF02290E279
:0678A9009FE0547FF02275
:1060AA0090EB7CE0FFC394BF400BEFD394C1500543
:1060BA007E007FC022EFC394AF400BEFD394B15060
:1060CA00057E007FB022EFC3945F400BEFD394614B
:1060DA0050057E007F6022EFC39457400BEFD394A4
:1060EA005950057E007F5822EFC3942F400BEFD3FF
:1060FA00943150057E007F3022EFC3942B400BEF82
:10610A00D3942D50057E007F2C22EFC3941F400BA1
:10611A00EFD3942150057E007F2022EF7003FEFF0B
:05612A00227E007FFF52
:01612F00224D
:107A1800E490E108F07F01FE12771490E10874FF0A
:027A2800F0224A
:106BBA0090E89AE05401FF90E89BE05401FEEF60F0
:106BCA00086401701FEEB4011B900510E0602FE409
:106BDA00FF127899E4900510F07BFF7A4F79FD0F48
:106BEA00125F0722900510E070147F0112789990C5
:0E6BFA0005107401F07BFF7A507924125F07BA
:016C08002269
:1046CB0090EB81E020E0030247FC90EB87E0900445
:1046DB0003F090EB86E0900404F01260AA900402C1
:1046EB00EFF0E4900405F0900405E0FFC39407405D
:1046FB00030247FCEF75F007A42412F582E434059E
:10470B00F583E0FF900402E0C39FFFE49400FE12E8
:10471B007B47C374019FEE6480F87480985003024A
:10472B0047F3900405E0FF75F007A42418F582E425
:10473B003405F583E0640160030247FCEF75F00775
:10474B00A42414F582E43405F583E0FF900404E01F
:10475B00B5072AA3E075F007A42415F582E4340508
:10476B00F583E0FF900403E0C39FFFE49400FE1287
:10477B007B47D3EF9412EE6480948040747BFF7A76
:10478B0050794A900405E0FF75F007A42412F582D6
:10479B00E43405F583E0FD900415E4F0A3EDF0900F
:1047AB000404E0900417F0900403E0900418F0EF79
:1047BB0075F007A42414F582E43405F583E0900426
:1047CB0019F0900405E075F007A42415F582E43484
:1047DB0005F583E090041AF07F01125F0790E10862
:1047EB00E054F7F04408F022900405E004F0024690
:0147FB00F2CB
:0147FC00229A
:1078250090E763E030E00E90EB8DE0FF30E406205A
:08783500E2037F01227F002223
:106592002A2A424B45375F30415F524547203D2012
:1065A20030782530326278002A2A424B45325F32F7
:1065B200385F524547203D203078253032627800DE
:1065C2006368303A202562642D2562643A2562644C
:1065D200206368313A202562642D2562643A25627F
:1065E20064206368323A202562642D2562643A256C
:1065F2006264007F655345352D27231F1B1917152C
:0366020013110F62
:105C0C00E4FE90E73FE05430FEC4540FFEEF6032E8
:105C1C0090E70A7405F090E2287477F090E7097425
:105C2C0084F090E2097417F090E20A7472F090E23A
:105C3C000B7417F090E20C7472F090E81A7408F080
:105C4C008040EE700E90E70A7403F090E2287477AF
:105C5C00F0800B90E70A7404F0E490E228F090E7EF
:105C6C00097402F090E2097410F090E20A7412F0D8
:105C7C0090E20B7410F090E20C7412F090E81A742D
:105C8C000CF07BFF7A65799290E70AE0900415F0AE
:105C9C007F01125F077BFF7A6579AA90E228E0907A
:085CAC000415F07F01125F07EF
:015CB40022CD
:106A170090E20D743FF0EF14601314601C240270B1
:106A27002490E20EEDF090E20F747FF02290E210D6
:106A3700EDF090E211747FF02290E212EDF090E217
:106A470013747FF02290E20EEDF090E20F747FF066
:106A570090E210EDF090E211747FF090E212EDF009
:076A670090E213747FF0229E
:0B7B740090E828E04404F054FBF022ED
:10651F00E4FBFAEF14601A14602A2402703790E833
:10652F00D8E0FE90E8D9E07A002400FBEA3EFA803A
:10653F002490E8DAE0FE90E8DBE07A002400FBEA42
:10654F003EFA801190E8DCE0FE90E8DDE07A00246E
:10655F0000FBEA3EFAED146012047024C3EB9410B2
:10656F00EA948040037F01227F0022C3EA94804097
:10657F000CD3EB9401EA948050037F01227F002219
:02658F007F008B
:0165910022E7
:106C5700121615FFF4603B90000112162EFEF46029
:106C670025EEC39F4014EEFF1216152FFFE433A243
:106C7700E713EF1390040EF0801E121615FFC313CF
:106C870090040EF08012121615FFC31390040EF035
:0D6C9700800690040E7408F090040EE0FFDB
:016CA40022CD
:1031D00090040C74FFF090040AF0900408F090043E
:1031E0000DF090040BF0900409F0E4900405F0E475
:1031F000900403F0900403E0FFC3941040030233F3
:1032000038900405E07005A3EFF08010900403E00F
:10321000FFC374109F900406F0E014F0900406E0E1
:103220009065F593FD7F03126A17127465127B7423
:10323000E4900407F0900407E0D3940550337F0135
:103240007E00127714900407E004F0E4FDFF12659D
:103250001FEF6012E47F0112651FEF6009E47F0237
:1032600012651FEF700B12774FBF01C90233EA805E
:10327000C4900405E02408F582E43404F583E0B446
:10328000FF1E7D01E4FF12651FBF0114900406E0DC
:10329000FF900405E02408F582E43404F583EFF0A0
:1032A000900405E0240AF582E43404F583E0B4FFD9
:1032B0001E7D017F0112651FBF0114900406E0FF0F
:1032C000900405E0240AF582E43404F583EFF090DD
:1032D0000405E0240CF582E43404F583E0B4FF1E19
:1032E0007D017F0212651FBF0114900406E0FF906C
:1032F0000405E0240CF582E43404F583EFF0900437
:1033000005E0FF2408F582E43404F583E0F4601F4F
:10331000740A2FF582E43404F583E0F4601190041C
:1033200005E0240CF582E43404F583E0B4FF099051
:103330000403E004F00231F4900405E07009900405
:1033400003E0C39410500F900405E004F0E0C39430
:103350000250030231EF7B017A047908126C579016
:103360000404EFF0E09065F593FDE4FF126A177A2C
:1033700004790A126C57AC07EC9065F593FD7F0158
:10338000126A177A04790C126C57AE07EE9065F545
:1033900093FD7F02126A177BFF7A6579C290040859
:1033A000E0900415F0900409E0900416F0900404F5
:1033B000E0900417F090040AE0900418F090040BD9
:1033C000E0900419F0AF04A3EFF090040CE0900437
:1033D0001BF090040DE090041CF0AF06A3EFF0E4A6
:0C33E000FF125F07127B747F01227F0048
:0133EC0022BE
:107A2A0090E82CE04404F090E828E04402F0123197
:017A3A00D07B
:017A3B002228
:105D5200EF121A5E5D84005D93015D9D025DAC03EE
:105D62005DB6045DC5055DCF065DDE075D750C00A1
:105D7200005DE790E5E5E0540FFFF0EDC454F04F0D
:105D8200F02290E5E6E0540FFFF0EDC454F04FF03E
:105D92002290E5E6E054F0F04DF02290E5E7E05481
:105DA2000FFFF0EDC454F04FF02290E5E7E054F01D
:105DB200F04DF02290E5E8E0540FFFF0EDC454F00E
:105DC2004FF02290E5E8E054F0F04DF02290E5E942
:105DD200E0540FFFF0EDC454F04FF02290E5E9E0FB
:065DE20054F0F04DF02228
:100E2D00EF121A5E0EB1000EC0010EDC020EFD03B4
:100E3D000F19040E74050E95060F3A070F56080F7D
:100E4D0065090F6F0A0F7E0B0F880C0F920D0FA106
:100E5D000E0FAB0F0FBA100FC4110FD3120FDD13FE
:100E6D000FEC1400000FF590E280E0540FFFF0ED51
:100E7D00C454F04FF0EB600890E289E04404F02296
:100E8D0090E289E054FBF02290E280E054F0F04DC6
:100E9D00F0EB600890E289E04402F02290E289E0F4
:100EAD0054FDF02290E281E0540FFFF0EDC454F0B8
:100EBD004FF02290E281E054F0F04DF0EB6008909D
:100ECD00E289E04408F02290E289E054F7F02290A4
:100EDD00E282E0540FFFF0EDC454F04FF0EB6008E8
:100EED0090E289E04410F02290E289E054EFF02284
:100EFD0090E282E054F0F04DF0EB600890E289E072
:100F0D004420F02290E289E054DFF02290E283E069
:100F1D00540FFFF0EDC454F04FF0EB600890E289F0
:100F2D00E04440F02290E289E054BFF02290E28349
:100F3D00E054F0F04DF0EB600890E289E04408F0E9
:100F4D002290E289E054F7F02290E285E0540FFF01
:100F5D00F0EDC454F04FF02290E285E054F0F04DE6
:100F6D00F02290E286E0540FFFF0EDC454F04FF004
:100F7D002290E286E054F0F04DF02290E287E054AA
:100F8D00F0F04DF02290E28CE0540FFFF0EDC454E0
:100F9D00F04FF02290E28CE054F0F04DF02290E210
:100FAD008DE0540FFFF0EDC454F04FF02290E28D20
:100FBD00E054F0F04DF02290E28EE0540FFFF0ED92
:100FCD00C454F04FF02290E28EE054F0F04DF02238
:100FDD0090E28FE0540FFFF0EDC454F04FF02290EB
:090FED00E28FE054F0F04DF02217
:10381600EF121A5E395400396B0139820239990365
:1038260039B00439C70539DE0639F507390F0839C5
:103836003D0939260B38570D386E0E38850F389CE2
:103846001038B31138CA1238E11338F81400003AA8
:103856000B90E29AE04480F0ED6005E04440F022EF
:1038660090E29AE054BFF02290E29AE04420F0ED14
:103876006005E04410F02290E29AE054EFF02290C6
:10388600E29AE04408F0ED6005E04404F02290E29C
:103896009AE054FBF02290E29AE04402F0ED6005D3
:1038A600E04401F02290E29AE054FEF02290E29B7E
:1038B600E04480F0ED6005E04440F02290E29BE0B9
:1038C60054BFF02290E29BE04420F0ED6005E04416
:1038D60010F02290E29BE054EFF02290E29BE0444D
:1038E60008F0ED6005E04404F02290E29BE054FB12
:1038F600F02290E29BE04402F0ED6005E04401F026
:103906002290E29BE054FEF02290E29CE04480F09C
:10391600ED6005E04440F02290E29CE054BFF022C6
:1039260090E29CE04420F0ED6005E04410F0229027
:10393600E29CE054EFF02290E29CE04408F0ED6057
:1039460005E04404F02290E29CE054FBF02290E271
:103956009EE04480F0ED6005E04440F02290E29E57
:10396600E054BFF02290E29EE04420F0ED6005E0D6
:103976004410F02290E29EE054EFF02290E29EE0A6
:103986004408F0ED6005E04404F02290E29EE05425
:10399600FBF02290E29EE04402F0ED6005E0440177
:1039A600F02290E29EE054FEF02290E29FE04480F6
:1039B600F0ED6005E04440F02290E29FE054BFF055
:1039C6002290E29FE04420F0ED6005E04410F022F2
:1039D60090E29FE054EFF02290E29FE04408F0ED81
:1039E6006005E04404F02290E29FE054FBF0229050
:1039F600E29FE04402F0ED6005E04401F02290E22F
:063A06009FE054FEF022D7
:107A3C00E4FB7D067F06120E2D7D027F06125D5241
:017A4C002217
:1079BB00EF700890E288E04408F02290E288E054EF
:0379CB00F7F022B0
:0E7ABA00E4FB7D02FF120E2DE4FF1279BB22C9
:103D9B005247445F4844435052583134202F322EFF
:103DAB0032204445435F53575F5253545F4E004894
:103DBB0044435020526561757468636C6561720091
:103DCB002A2A2A2A2A2A2A2A2A2A2A2A2A2A2A2A48
:103DDB002A2A2A2A2A2A2A2A2A2A2A2A2A2A2A2A38
:103DEB002A2A2A2A2A2A2A004844435020313420DE
:103DFB0061757468656420737563636573730048DC
:103E0B0044435020313420617574686564206661C9
:103E1B00696C6564004844435020313420637572EB
:103E2B0072656E74206672616D652064656372796C
:103E3B007074696F6E2073756363657373004844A8
:103E4B0043502031342063757272656E7420667234
:103E5B00616D652064656372797074696F6E20663D
:103E6B0061696C65640048444350203232206564BC
:103E7B006B65795F6B7320726561647900484443AD
:103E8B00502032322065646B65795F6B73206661FD
:103E9B00696C65640048444350203232206375726C
:103EAB0072656E74206672616D65206465637279EC
:103EBB007074696F6E207375636365737300484428
:103ECB0043502032322063757272656E74206672B5
:103EDB00616D652064656372797074696F6E2066BD
:103EEB0061696C65640048444350206B65792056CA
:103EFB00616C69640048444350206B657920496EBE
:103F0B0076616C6964004844435020312E342B3267
:0B3F1B002E322064697361626C650047
:081FBE004105C6004105C50004
:1072840090E107E054EFF054F7F054FDF054FEF0B1
:107294007F147E00127A9D90E107E04410F04408C8
:1072A400F04402F04401F07BFF7A3D799B7F0112A8
:0372B4005F07224F
:106DD20090E911E04440F07F0A7E00127A9D90E92A
:106DE20011E054BFF07BFF7A3D79BA7F01125F0751
:106DF20090E900E054FEF090E901E04440F07F0A9F
:106E02007E00127A9D90E901E054BFF090E900E023
:046E12004401F02225
:0B7B7F0090E980E05402FFC313FF22D6
:10536A00E4900409F0FFF090E984E05403FFE4902C
:10537A000409F0EF25E025E0FFF0FE90E9B3E054E0
:10538A0003FFEE54FC900409F04FFFF09005C5E0CE
:10539A006F7003025455900409E09005C5F07BFF35
:1053AA007A3D79CB7F01125F07900409E05408FF28
:1053BA00131313541F600D7BFF7A3D79F37F01129B
:1053CA005F07800B7BFF7A3E790A7F01125F0790A5
:1053DA000409E05404FF1313543F600D7BFF7A3E27
:1053EA0079207F01125F07800B7BFF7A3E79497F24
:1053FA0001125F07900409E05402FFC313600D7B9A
:10540A00FF7A3E79717F01125F07800B7BFF7A3E3C
:10541A0079887F01125F07900409E030E0127F016A
:10542A00127CD17BFF7A3E79A07F01125F07801040
:10543A00E4FF127CD17BFF7A3E79C97F01125F07B4
:0B544A007BFF7A3D79CB7F01125F07EA
:015455002234
:067CD10090040AEFF0220E
:0563B300900403EFF06F
:1063B800E4FE90E800E054FDF090E931E054FEF08E
:1063C800127B7FEF60010EEE600D7BFF7A3E79F164
:1063D8007F01125F07800B7BFF7A3F79007F0312F2
:1063E8005F07900403E0FD30E40E90E114E044C040
:1063F800F090E901E04480F0ED30E52A90E900E012
:106408004402F04404F090E911E04401F090E912EC
:10641800E04404F054F7F090E9167402F0E490E9CF
:0664280015F090E914F0EC
:01642E00224B
:1078AF0090E906E054BFF04420F07BFF7A3F791156
:0678BF007F01125F0722A9
:017CE400227D
:104082005278706C6C2043616C6920737461727435
:10409200005278504C4C2063616C69206661696CF7
:1040A200005278706C6C20756E6C6F636B00527886
:1040B200706C6C2043616C692062616E646F757410
:1040C2003A203078253032627820307825303262DA
:1040D20078004864447669527820527465726D2083
:1040E2003D203078253032627800415649205959B6
:1040F2003A20307825303262787C20474350204382
:10410200442D50503A2030782530326278004844AD
:10411200445649205258204672616D65205261749E
:10412200653A20256264687A004844445649205220
:10413200585B485D3A2048746F74616C3A25642C70
:10414200486163746976653A25642C4873773A2529
:10415200642C4866703A25642C4862703A25642CB7
:104162004873706F6C3A2562640048444456492093
:1041720052585B565D3A2056746F74616C3A2564EE
:104182002C566163746976653A25642C5673773AC6
:1041920025642C5666703A25642C5662703A256462
:1041A2002C5673706F6C3A25626400696E74657286
:1041B2006C6163653A307825303262780041595536
:1041C200AA4C543639313144AA55284125052701D4
:101FC6004105AE004105AF004105B0004105B10035
:081FD6004105B2004105B30012
:10774F0090057BE064016009127AF0BF01037F01AD
:0D775F002290057EE070037F01227F002252
:05749100900404EFF07F
:10749600E4A3F0900404E0FFA3E0D39F50177F011C
:1074A6007E0012771412774FEF640160089004058E
:0574B600E004F080DE9F
:0174BB0022AE
:1072B70090E220E054DFF054BFF04402F04404F0C1
:1072C7004408F090E10CE054FCF04403F090E10F27
:1072D700E054DFF04420F090E734E0547FF044803E
:0272E700F02293
:1061B400E4900403F07BFF7A407982FF125F0712B8
:1061C40072B7900403E004F07F0512749190040305
:1061D400E0C39414500790E735E030E1E590E735EB
:1061E400E054036402600E7BFF7A4079937F0312CC
:1061F4005F077F002290E735E05408FF1313135420
:106204001F700E7BFF7A4079A37F03125F077F0024
:10621400227BFF7A4079B090E736E0900415F09045
:10622400E737E0900416F0E4FF125F07127B8A7FE1
:016234000168
:016235002246
:077C650090E5D77401F02245
:1073AC00AE0790E227E04408F04420F0EDB401125F
:1073BC00EEB4050EE054EFF04404F054FCF044023B
:1073CC00F02290E227E04410F054FBF054FCF02241
:10705500E4900403F090E714E054FEF04401F07F5F
:10706500057E00127714900403E004F0E0C3940356
:10707500500790E71AE030E3DC7BFF7A4079D49043
:0C708500E71BE0900415F0E4FF125F0729
:0170910022DC
:10780B00EFB4010B90E207E04480F054F0F02290CB
:0A781B00E207E0547FF0440FF02272
:1074650090E10FE054BFF054F7FFF090E10DE054C8
:10747500F7FEF0EF444090E10FF04408F0EE4408C9
:0C74850090E10DF07F017E0012771422D0
:107A4D00EFB40106E490E21BF02290E21B740FF0FC
:017A5D002206
:10767A00EFB4010E90E808E04440F090E29D7404F3
:10768A00F02290E808E054BFF090E29D74A4F02242
:1078C50090E105E054FDF04402F054FEF04401F06F
:0678D5007F0A12749122EB
:0B7B8A0090E221E04402F054FDF022E4
:077C6C0090E2257450F022A4
:0A0FF600E4FF12780BE4127A4D229A
:1071E60090057EE0B40115E49005AEF0A3E0FF043F
:1071F600F0EFC39414401BE4F07F0122E49005AF46
:10720600F09005AEE0FF04F0EFC394C84004E4F04C
:04721600FF227F02D2
:01721A002251
:10721B0090057FE0B40117E49005B1F09005B0E064
:10722B00FF04F0EFC394144019E4F07F0122E490C3
:10723B0005B0F0A3E0FF04F0EFC394C84004E4F002
:04724B00FF227F029D
:01724F00221C
:065CB500900403121A49DD
:105CBB007BFF7A4079EC90E8D0E0900415F090E807
:105CCB00D1E0900416F0E4FF125F0790E8D0E054A7
:105CDB0070FFE4C4F854F0C868EFC4540F48FF9049
:105CEB000403121A29EF12165B90E8D1E054F0FF6F
:105CFB00E4C4F854F0C868EFC4540F48FF24FA60AA
:105D0B000304700C900406121A29EF12165B800A1A
:105D1B00900406121A29E412165B900403121A2936
:105D2B00121615FF900406121A29121615FD125A97
:105D3B00B3900409121A29121615B507037F002216
:065D4B00EF12165B7F0160
:015D5100222F
:077C730090E5A97403F02263
:087C120090E828E054FEF02286
:087C1A0090E811E04401F022A2
:1076F60090E82A749CF090E82B7440F090E815E02E
:0E7706004480F090E819E0540FF04460F02247
:106B180090E81BE0547FF04440F090E115E054F019
:106B2800F09005C77401F0FF12780B127A4D127CB1
:106B3800651270551276F61254569005C7E0B401E6
:106B48000B7B017A0279021269B980097B017A000C
:106B580079011269B9127C73127C12127C1A127CA8
:026B68006C229D
:0D7AE300EFB4030690E870E0FF227F002260
:0D7AF0007F03127AE3EF5402FFC313FF225D
:105536007B017A057988124D927BFF7A417910902A
:1055460005A2E0900415F07F01125F077BFF7A4108
:10555600792B90058CE0FFA3E0900415CFF0A3EF24
:10556600F090058EE0FFA3E0900417CFF0A3EFF0D4
:10557600900592E0FFA3E0900419CFF0A3EFF0901E
:105586000590E0FFA3E090041BCFF0A3EFF0900599
:1055960094E0FFA3E090041DCFF0A3EFF09005A0E8
:1055A600E090041FF07F01125F077BFF7A41796C60
:1055B600900596E0FFA3E0900415CFF0A3EFF090DE
:1055C6000598E0FFA3E0900417CFF0A3EFF0900555
:1055D6009CE0FFA3E0900419CFF0A3EFF090059AAA
:1055E600E0FFA3E090041BCFF0A3EFF090059EE050
:1055F600FFA3E090041DCFF0A3EFF09005A1E0908B
:09560600041FF07F01125F07226E
:0B7B950090E858E04410F054EFF0229C
:0B7BA00090E858E04420F0127B952292
:1078DB0090E8F3E05420FFC41354076006127B9525
:0678EB007F01227F002254
:0B7BAB0090E858E04404F054FBF02286
:0B7BB60090E858E04408F0127BAB227E
:10791B0090E8F3E05410FFC4540F6006127BAB7F6A
:05792B0001227F002293
:077C7A00127BA0127BB62271
:067CD7007F82127AD62222
:1071B0007F82125B60BF0115E49005B2F0A3E0FF8F
:1071C00004F0EFC39414401BE4F07F0122E4900527
:1071D000B3F09005B2E0FF04F0EFC394C84004E4BC
:0571E000F0FF227F0218
:0171E5002287
:1041D200E490040FF07F01123BF890040BEEF0A381
:1041E200EFF07F06123BF890040DEEF0A3EFF09093
:1041F200040FE0C39432400302429D7F057E001209
:1042020077147F01123BF8900407EEF0A3EFF07FE2
:1042120006123BF8900409EEF0A3EFF0900407E0D9
:10422200FEA3E0FF90040BE06E7003A3E06F600357
:1042320002430F900409E0FCA3E0FD90040DE06C42
:104242007003A3E06D600302430FD3EF9450EE942A
:1042520000500302430FD3ED9450EC94005003023C
:10426200430F900407E0FEA3E0FFC39464EE9414AE
:10427200400302430FA3E0FCA3E0FDC39464EC946B
:1042820014400302430F90040BEEF0A3EFF0A3ECF3
:10429200F0A3EDF0A3E004F00241F1E4900582F016
:1042A200900407E0FEA3E0FFBE0713BF8010A3E067
:1042B200B4020BA3E0B41C069005827401F0BE05A3
:1042C20015BFA012900409E0B4010BA3E0B42006CC
:1042D2009005827401F0900407E0B40514A3E0B4E1
:1042E200A00FA3E07004A3E064F0700590058204BF
:1042F200F09005807401F07BFF7A4179AD900582E0
:10430200E0900415F0E4FF125F077F0122E49004BD
:034312000FF0FFAA
:014315002285
:102FAE004D69706920445349204F7574004D697006
:102FBE006920435349204F7574004D697069204F45
:102FCE006666005478302052643A203078253032CC
:102FDE006278202C52703A30782530326278005464
:102FEE0078312052643A2030782530326278202CA5
:102FFE0052703A30782530326278004C4D54585029
:10300E004C4C2063616C69206661696C004C4D54B8
:10301E0058504C4C20756E6C6F636B004C4D545871
:10302E00504C4C2063616C6962726174696F6E20E2
:10303E0062616E646F75743A203078253032627832
:10304E00203078253032627800756C48616C66509D
:10305E006978436C6B3A256C642063616C632075F0
:10306E006C42797465636C6B3A256C642C20756CBC
:10307E00506879436C6B3A256C642C2075634270F2
:10308E00703A2562642C2075635478506F72744EBA
:10309E00756D3A307825303262782C20756354780D
:1030AE004C616E654E756D3A30782530326278001F
:1030BE0065727220706C6C206461746172617465EB
:1030CE003A256C64007072656469765F736574206E
:1030DE004E313A307825303262782C206672657126
:1030EE005F736574204E323A307825303262782C18
:1030FE00207462637220736574204D313A307825E6
:10310E00303262782C207563446976536574204D95
:10311E00323A3078253032627800636B5F706F73AD
:10312E0074202830784541413929203D20307825BA
